:020000040800F2
:1000000000280020911A0008211A0008271A000869
:100010002D1A0008331A0008391A000800000000E1
:100020000000000000000000000000003F1A00086F
:100030004B1A000800000000571A0008631A000855
:10004000D91A0008D91A0008D91A0008D91A0008C4
:10005000D91A0008D91A0008D91A0008D91A0008B4
:10006000D91A0008D91A0008D91A0008D91A0008A4
:10007000D91A0008D91A0008D91A0008D91A000894
:10008000D91A0008D91A0008D91A0008D91A000884
:10009000D91A0008D91A0008D91A0008D91A000874
:1000A000D91A0008D91A0008D91A0008D91A000864
:1000B000711A0008D91A000800000000D91A0008B7
:1000C000D91A00080000000000000000D91A00083A
:1000D00000000000D91A0008D91A0008000000002A
:1000E000D91A0008D91A0008D91A0008000000001F
:1000F0000000000000000000000000000000000000
:0C01000000000000000000005FF808F1A3
:10010C0010B5054C237833B9044B13B10448AFF345
:10011C0000800123237010BD34000020000000007B
:10012C002031000808B5034B1BB103490348AFF35A
:10013C00008008BD000000003800002020310008BD
:10014C0080B500AF224B1B78022B2FD0022B3CDC4E
:10015C00002B02D0012B15D037E0002000F04AF91B
:10016C000346002B2CD01A4B01221A70194B1B681A
:10017C00012B03D1174B00221A6021E0164B0122F0
:10018C001A701DE0002000F035F90346002B03D156
:10019C000F4B00221A7015E0002000F045F90346C1
:1001AC00002B0FD00A4B02221A700BE0002000F03B
:1001BC0021F90346002B07D1054B00221A7003E0EE
:1001CC0000BF02E000BF00E000BF00BF80BD00BF69
:1001DC0066000020000000207100002080B500AFF8
:1001EC001E4B1B78022B27D0022B34DC002B02D0A9
:1001FC00012B0DD02FE0012000F0FCF80346002B62
:10020C0024D0164B01221A70154B01221A701DE0D6
:10021C00012000F0EFF80346002B03D10F4B002216
:10022C001A7015E0012000F0FFF80346002B0FD0E8
:10023C000A4B02221A700BE0012000F0DBF8034697
:10024C00002B07D1054B00221A7003E000BF02E01F
:10025C0000BF00E000BF00BF80BD00BF67000020F2
:10026C007300002080B500AF1E4B1B78022B27D0EB
:10027C00022B34DC002B02D0012B0DD02FE00220FE
:10028C0000F0B8F80346002B24D0164B01221A704C
:10029C00154B01221A701DE0022000F0ABF803464A
:1002AC00002B03D10F4B00221A7015E0022000F036
:1002BC00BBF80346002B0FD00A4B02221A700BE03E
:1002CC00022000F097F80346002B07D1054B0022C3
:1002DC001A7003E000BF02E000BF00E000BF00BFE7
:1002EC0080BD00BF680000207200002090B583B074
:1002FC0000AF0023FB7169E0FB79002B0ED1FA797A
:10030C00FB793649895C364AD154FC790121354850
:10031C0001F0C8FE03461A46304B1A55FB79012BE7
:10032C000ED1FA79FB792D49895C2D4AD154FC798F
:10033C0002212C4801F0B6FE03461A46274B1A55EB
:10034C00FB79022B0ED1FA79FB792449895C244A7A
:10035C00D154FC790421234801F0A4FE03461A462B
:10036C001E4B1A55FB791D4AD25CFB791C49CB5CA0
:10037C009A4205D1FA79FB791849895C1A4AD15409
:10038C00FB79194AD35C002B14D1FB79174A32F84C
:10039C001330632B09D8FB79144A32F8132001323D
:1003AC0091B2124A22F813100DE0FB79104A012188
:1003BC00D15408E0FB790D4A002122F81310FB7987
:1003CC000B4A0021D154FB790133FB71FB79022BD1
:1003DC0092D900BF00BF0C37BD4690BD5400002021
:1003EC0058000020000C014050000020600000204C
:1003FC005C00002080B483B000AF0346FB71FB7936
:10040C00022B01D9002307E0FB79064AD35C002BB1
:10041C000CBF01230023DBB218460C37BD4680BC51
:10042C00704700BF5000002080B483B000AF03467B
:10043C00FB71FB79022B01D9FF2307E0FB79064AFC
:10044C00D35C012B0CBF01230023DBB218460C3705
:10045C00BD4680BC704700BF5C00002080B483B0F8
:10046C0000AF7860074B1B687A6892FBF3F3064A7F
:10047C001360064B00221A6000BF0C37BD4680BCCF
:10048C00704700BF1C00002080000020840000206A
:10049C0080B483B000AF7860074B1B687A6892FB1E
:1004AC00F3F3064A1360064B00221A6000BF0C37A8
:1004BC00BD4680BC704700BF1C0000208800002097
:1004CC008C00002080B400AF194B1B68002B04DD9E
:1004DC00174B1B68013B164A1360154B1B68002B0E
:1004EC0002D1144B01221A60134B1B68002B04DD44
:1004FC00114B1B68013B104A13600F4B1B68002B00
:10050C0002D10E4B01221A600D4B1B68002B04DD2F
:10051C000B4B1B68013B0A4A1360094B1B68002BF1
:10052C0002D1084B01221A6000BFBD4680BC704747
:10053C00780000207C000020800000208400002037
:10054C00880000208C00002080B582B000AF78605D
:10055C0039607B68013B062B4FD801A252F823F07F
:10056C00890500089B050008AD050008BF050008BB
:10057C00D1050008E3050008F50500083B68DBB26F
:10058C001A464FF400711F4801F0A3FD35E03B689B
:10059C00DBB21A464FF480611A4801F09AFD2CE048
:1005AC003B68DBB21A464FF40061164801F091FD2E
:1005BC0023E03B68DBB21A464FF48051114801F03E
:1005CC0088FD1AE03B68DBB21A464FF400510D4827
:1005DC0001F07FFD11E03B68DBB21A464FF480411D
:1005EC00084801F076FD08E03B68DBB21A464FF490
:1005FC000041044801F06DFD00BF00BF0837BD4647
:10060C0080BD00BF000C014080B582B000AF7860A7
:10061C0039607B68013B062B48D801A252F823F0C5
:10062C004906000859060008690600087906000802
:10063C008906000899060008A90600083B68DBB289
:10064C001A4602211B4801F044FD2FE03B68DBB247
:10065C001A460421174801F03CFD27E03B68DBB249
:10066C001A460821134801F034FD1FE03B68DBB249
:10067C001A4610210F4801F02CFD17E03B68DBB245
:10068C001A4620210B4801F024FD0FE03B68DBB239
:10069C001A464021074801F01CFD07E03B68DBB21D
:1006AC001A468021034801F014FD00BF00BF083733
:1006BC00BD4680BD0008014080B582B000AF7860B7
:1006CC0039607B68013B062B4FD801A252F823F00E
:1006DC00F90600080B0700081D0700082F07000883
:1006EC004107000853070008650700083B68DBB2A8
:1006FC001A464FF480711F4801F0EBFC35E03B6863
:10070C00DBB21A464FF400711A4801F0E2FC2CE0FF
:10071C003B68DBB21A464FF48061164801F0D9FCF5
:10072C0023E03B68DBB21A464FF40061114801F03C
:10073C00D0FC1AE03B68DBB21A464FF480510D48EE
:10074C0001F0C7FC11E03B68DBB21A464FF40051D4
:10075C00084801F0BEFC08E03B68DBB21A464FF4D7
:10076C008041044801F0B5FC00BF00BF0837BD460E
:10077C0080BD00BF0008014080B582B000AF78603A
:10078C003960E54B1B687A689A4240F03F813B68C0
:10079C00002B1CD100210120FFF7D6FE00210220E6
:1007AC00FFF7D2FE00210320FFF7CEFE002104202C
:1007BC00FFF7CAFE00210520FFF7C6FE0021062028
:1007CC00FFF7C2FE01210720FFF7BEFE1EE13B68CA
:1007DC00012B1CD101210120FFF7B6FE00210220C4
:1007EC00FFF7B2FE00210320FFF7AEFE012104202B
:1007FC00FFF7AAFE01210520FFF7A6FE0121062026
:10080C00FFF7A2FE01210720FFF79EFEFEE03B68EA
:10081C00022B1CD100210120FFF796FE00210220A3
:10082C00FFF792FE01210320FFF78EFE002104202A
:10083C00FFF78AFE00210520FFF786FE0121062026
:10084C00FFF782FE00210720FFF77EFEDEE03B680B
:10085C00032B1CD100210120FFF776FE0021022082
:10086C00FFF772FE00210320FFF76EFE002104202B
:10087C00FFF76AFE01210520FFF766FE0121062025
:10088C00FFF762FE00210720FFF75EFEBEE03B682B
:10089C00042B1CD101210120FFF756FE0021022060
:1008AC00FFF752FE00210320FFF74EFE012104202A
:1008BC00FFF74AFE01210520FFF746FE0021062026
:1008CC00FFF742FE00210720FFF73EFE9EE03B684B
:1008DC00052B1CD100210120FFF736FE012102203F
:1008EC00FFF732FE00210320FFF72EFE002104202B
:1008FC00FFF72AFE01210520FFF726FE0021062026
:10090C00FFF722FE00210720FFF71EFE7EE03B686A
:10091C00062B1CD100210120FFF716FE012102201D
:10092C00FFF712FE00210320FFF70EFE002104202A
:10093C00FFF70AFE00210520FFF706FE0021062026
:10094C00FFF702FE00210720FFF7FEFD5EE03B688B
:10095C00072B1CD100210120FFF7F6FD00210220FE
:10096C00FFF7F2FD00210320FFF7EEFD012104202B
:10097C00FFF7EAFD01210520FFF7E6FD0121062026
:10098C00FFF7E2FD01210720FFF7DEFD3EE03B68AB
:10099C00082B1CD100210120FFF7D6FD00210220DD
:1009AC00FFF7D2FD00210320FFF7CEFD002104202C
:1009BC00FFF7CAFD00210520FFF7C6FD0021062028
:1009CC00FFF7C2FD00210720FFF7BEFD1EE03B68CC
:1009DC00092B1BD100210120FFF7B6FD00210220BD
:1009EC00FFF7B2FD00210320FFF7AEFD002104202C
:1009FC00FFF7AAFD01210520FFF7A6FD0021062027
:100A0C00FFF7A2FD00210720FFF79EFD434B1B685B
:100A1C007A689A4240F043813B68002B1CD100213C
:100A2C000120FFF7F1FD00210220FFF7EDFD002171
:100A3C000320FFF7E9FD00210420FFF7E5FD00216D
:100A4C000520FFF7E1FD00210620FFF7DDFD012168
:100A5C000720FFF7D9FD22E13B68012B1CD10121B6
:100A6C000120FFF7D1FD00210220FFF7CDFD002171
:100A7C000320FFF7C9FD01210420FFF7C5FD01216B
:100A8C000520FFF7C1FD01210620FFF7BDFD012167
:100A9C000720FFF7B9FD02E13B68022B1CD10021B6
:100AAC000120FFF7B1FD00210220FFF7ADFD012170
:100ABC000320FFF7A9FD00210420FFF7A5FD00216D
:100ACC000520FFF7A1FD01210620FFF79DFD002168
:100ADC000720FFF799FDE2E03B68032B20D10021B2
:100AEC000120FFF791FD00210220FFF78DFD002171
:100AFC000320FFF789FD00210420FFF785FD01216C
:100B0C000520FFF781FD01210620FFF77DFD002167
:100B1C000720FFF779FDC2E09000002020000020A4
:100B2C003B68042B1CD101210120FFF76DFD002136
:100B3C000220FFF769FD00210320FFF765FD01216D
:100B4C000420FFF761FD01210520FFF75DFD002169
:100B5C000620FFF759FD00210720FFF755FD9EE009
:100B6C003B68052B1CD100210120FFF74DFD012115
:100B7C000220FFF749FD00210320FFF745FD00216E
:100B8C000420FFF741FD01210520FFF73DFD002169
:100B9C000620FFF739FD00210720FFF735FD7EE029
:100BAC003B68062B1CD100210120FFF72DFD0121F4
:100BBC000220FFF729FD00210320FFF725FD00216E
:100BCC000420FFF721FD00210520FFF71DFD00216A
:100BDC000620FFF719FD00210720FFF715FD5EE049
:100BEC003B68072B1CD100210120FFF70DFD0021D4
:100BFC000220FFF709FD00210320FFF705FD01216D
:100C0C000420FFF701FD01210520FFF7FDFC012168
:100C1C000620FFF7F9FC01210720FFF7F5FC3EE069
:100C2C003B68082B1CD100210120FFF7EDFC0021B3
:100C3C000220FFF7E9FC00210320FFF7E5FC00216F
:100C4C000420FFF7E1FC00210520FFF7DDFC00216B
:100C5C000620FFF7D9FC00210720FFF7D5FC1EE08A
:100C6C003B68092B1BD100210120FFF7CDFC002193
:100C7C000220FFF7C9FC00210320FFF7C5FC00216F
:100C8C000420FFF7C1FC01210520FFF7BDFC00216A
:100C9C000620FFF7B9FC00210720FFF7B5FCA44B99
:100CAC001B687A689A4240F03F813B68002B1CD14C
:100CBC0000210120FFF700FD00210220FFF7FCFCC2
:100CCC0000210320FFF7F8FC00210420FFF7F4FCBF
:100CDC0000210520FFF7F0FC00210620FFF7ECFCBB
:100CEC0001210720FFF7E8FC1EE13B68012B1CD11A
:100CFC0001210120FFF7E0FC00210220FFF7DCFCC2
:100D0C0000210320FFF7D8FC01210420FFF7D4FCBD
:100D1C0001210520FFF7D0FC01210620FFF7CCFCB8
:100D2C0001210720FFF7C8FCFEE03B68022B1CD119
:100D3C0000210120FFF7C0FC00210220FFF7BCFCC2
:100D4C0001210320FFF7B8FC00210420FFF7B4FCBD
:100D5C0000210520FFF7B0FC01210620FFF7ACFCB9
:100D6C0000210720FFF7A8FCDEE03B68032B1CD119
:100D7C0000210120FFF7A0FC00210220FFF79CFCC2
:100D8C0000210320FFF798FC00210420FFF794FCBE
:100D9C0001210520FFF790FC01210620FFF78CFCB8
:100DAC0000210720FFF788FCBEE03B68042B1CD118
:100DBC0001210120FFF780FC00210220FFF77CFCC1
:100DCC0000210320FFF778FC01210420FFF774FCBD
:100DDC0001210520FFF770FC00210620FFF76CFCB9
:100DEC0000210720FFF768FC9EE03B68052B1CD117
:100DFC0000210120FFF760FC01210220FFF75CFCC1
:100E0C0000210320FFF758FC00210420FFF754FCBD
:100E1C0001210520FFF750FC00210620FFF74CFCB8
:100E2C0000210720FFF748FC7EE03B68062B1CD115
:100E3C0000210120FFF740FC01210220FFF73CFCC0
:100E4C0000210320FFF738FC00210420FFF734FCBD
:100E5C0000210520FFF730FC00210620FFF72CFCB9
:100E6C0000210720FFF728FC5EE03B68072B1CD114
:100E7C0000210120FFF720FC00210220FFF71CFCC1
:100E8C0000210320FFF718FC01210420FFF714FCBC
:100E9C0001210520FFF710FC01210620FFF70CFCB7
:100EAC0001210720FFF708FC3EE03B68082B1CD112
:100EBC0000210120FFF700FC00210220FFF7FCFBC2
:100ECC0000210320FFF7F8FB00210420FFF7F4FBBF
:100EDC0000210520FFF7F0FB00210620FFF7ECFBBB
:100EEC0000210720FFF7E8FB1EE03B68092B1BD114
:100EFC0000210120FFF7E0FB00210220FFF7DCFBC3
:100F0C0000210320FFF7D8FB00210420FFF7D4FBBE
:100F1C0001210520FFF7D0FB00210620FFF7CCFBB9
:100F2C0000210720FFF7C8FB00BF0837BD4680BD76
:100F3C002400002080B582B000AF234B1B68092B26
:100F4C0012DC214B1B68002B0EDB204B1B68002195
:100F5C001846FFF711FC1E4B1B681B4A1268114602
:100F6C001846FFF709FC2AE0174B1B68092B26DDF6
:100F7C00154B1B68632B22DC134B1B68154A82FB39
:100F8C0003129210DB17D31A7B600F4B1A68114BAC
:100F9C0083FB02139910D317C91A0B469B000B4401
:100FAC005B00D31A3B60094B1B6879681846FFF746
:100FBC00E3FB074B1B6839681846FFF7DDFB00BFE6
:100FCC000837BD4680BD00BF6C000020200000200B
:100FDC00240000206766666680B500AF064B1B6870
:100FEC0000211846FFF7C8FB044B1B68002118466C
:100FFC00FFF7C2FB00BF80BD2000002024000020B2
:10100C0080B500AF0B4B1A780B4B1B781343DBB23C
:10101C00002B0AD0094B1B680133084A1360054B9F
:10102C0000221A70044B00221A70FFF783FF00BFD6
:10103C0080BD00BF73000020740000206C000020F5
:10104C0080B500AF0B4B1A780B4B1B781343DBB2FC
:10105C00002B0AD0094B1B680133084A1360054B5F
:10106C0000221A70044B00221A70FFF763FF00BFB6
:10107C0080BD00BF73000020740000206C000020B5
:10108C0080B500AF0B4B1A780B4B1B781343DBB2BC
:10109C00002B0AD0094B1B680133084A1360054B1F
:1010AC0000221A70044B00221A70FFF743FF00BF96
:1010BC0080BD00BF73000020740000206C00002075
:1010CC0080B500AF034B1B68034A1360FFF784FF26
:1010DC0000BF80BD6C0000200400002080B500AF74
:1010EC00034B1B68034A1360FFF776FF00BF80BDFC
:1010FC006C0000200C00002080B400AF0F4B1B686C
:10110C000F4A13600E4B1B6801330E4A13600E4BD3
:10111C001B6801330D4A13600B4B1A68084B1B6894
:10112C00D31A0B4A13600B4B00221A700A4B002285
:10113C001A7000BFBD4680BC704700BF6C00002019
:10114C0008000020100000200400002014000020E3
:10115C0018000020690000206A00002080B500AF54
:10116C00134B1B68002B06D00821124800F0C9FF56
:10117C00FA20FFF773F9012210210E4800F0A9FFA5
:10118C00012220210B4800F0A4FF01224021094834
:10119C0000F09FFF01228021064800F09AFF0122F7
:1011AC004FF48071034800F094FF00BF80BD00BF76
:1011BC0084000020000C014080B500AF134B1B686D
:1011CC00002B06D01021124800F09BFFFA20FFF7ED
:1011DC0045F9012208210E4800F07BFF0122202155
:1011EC000B4800F076FF01224021094800F071FF06
:1011FC0001228021064800F06CFF01224FF480711F
:10120C00034800F066FF00BF80BD00BF84000020D3
:10121C00000C014080B500AF134B1B68002B06D0AF
:10122C002021124800F06DFFFA20FFF717F9012278
:10123C0008210E4800F04DFF012210210B4800F050
:10124C0048FF01224021094800F043FF0122802180
:10125C00064800F03EFF01224FF48071034800F075
:10126C0038FF00BF80BD00BF84000020000C01408F
:10127C0080B582B000AF7860044B1B687968184663
:10128C00FFF77AFA00BF0837BD4680BD90000020FA
:10129C0080B400AF094B00221A70094B00221A705F
:1012AC00084B00221A70084B00221A70074B0022C0
:1012BC001A7000BFBD4680BC704700BF7000002094
:1012CC0071000020720000207300002074000020C8
:1012DC0080B582B000AF78607B68032B00F28C8005
:1012EC0001A252F823F000BF0513000845130008B3
:1012FC0085130008C513000800220821404800F09F
:10130C00E8FE012210213E4800F0E3FE01222021DC
:10131C003B4800F0DEFE01224021394800F0D9FEA6
:10132C0001228021364800F0D4FE00224FF4807157
:10133C00334800F0CEFE5FE000220821304800F078
:10134C00C8FE012210212E4800F0C3FE01222021EC
:10135C002B4800F0BEFE01224021294800F0B9FEC6
:10136C0000228021264800F0B4FE01224FF4807147
:10137C00234800F0AEFE3FE001220821204800F097
:10138C00A8FE012210211E4800F0A3FE00222021FD
:10139C001B4800F09EFE00224021194800F099FEE7
:1013AC0001228021164800F094FE01224FF4807136
:1013BC00134800F08EFE1FE001220821104800F0B7
:1013CC0088FE002210210E4800F083FE012220210D
:1013DC000B4800F07EFE00224021094800F079FE07
:1013EC0001228021064800F074FE01224FF4807126
:1013FC00034800F06EFE00BF00BF0837BD4680BD3D
:10140C00000C014080B582B000AF7860044B1B68C3
:10141C0079681846FFF7B0F900BF0837BD4680BDA4
:10142C009000002080B500AF6B4B1B681846FFF78F
:10143C00E9FF6A4B1B78032B00F2C88001A252F81B
:10144C0023F000BF61140008B7140008131500083E
:10145C006F1500080020FFF73BFF614B1B68002B4A
:10146C0012D0604B1B68013B5E4A13605A4B1B68E1
:10147C00013B594A13605C4B1B68013B5A4A136091
:10148C004FF47A70FFF704F8564B1B68002B00F3EF
:10149C009680564B01221A70554B1B68524A1360AA
:1014AC00534B1B684F4A136089E00120FFF710FF74
:1014BC004B4B1B68002B12D04A4B1B68013B494A13
:1014CC001360454B1B68013B434A1360464B1B683A
:1014DC00013B454A13604FF47A70FEF7D9FF414B3C
:1014EC001B68002B6DDC414B02221A70414B1B68B0
:1014FC003C4A13603F4B1B68374A13603E4B1B68DA
:10150C00394A13605DE00220FFF7E2FE344B1B68A2
:10151C00002B12D0334B1B68013B324A13602E4B0D
:10152C001B68013B2C4A13602F4B1B68013B2E4A56
:10153C0013604FF47A70FEF7ABFF2A4B1B68002B3D
:10154C0041DC2A4B03221A70294B1B68254A136075
:10155C00274B1B68204A1360274B1B68224A1360D9
:10156C0031E00320FFF7B4FE1D4B1B68002B12D09B
:10157C001C4B1B68013B1B4A1360174B1B68013B40
:10158C00154A1360184B1B68013B174A13604FF444
:10159C007A70FEF77DFF134B1B68002B15DC134B89
:1015AC0000221A70134B1B680E4A1360124B1B68F7
:1015BC00094A13600F4B1B680B4A136005E000BF10
:1015CC0004E000BF02E000BF00E000BF074B1A7848
:1015DC00024B1A7000BF80BD14000020690000206F
:1015EC008C00002010000020180000206A00002051
:1015FC000C000020080000200400002080B500AF83
:10160C00484B1B78032B00F2808001A252F823F088
:10161C002D1600085716000893160008CF16000860
:10162C00FFF700FFFFF7D8FC3F4B1B78002B65D072
:10163C00FFF72EFE3D4B1B683D4A1360FA20FEF768
:10164C000DFF3C4B01221A7058E00120FFF710FEF1
:10165C00FFF784FDFFF7D4FC334B1B78002B08D02D
:10166C00FFF716FE344B1B68314A1360314B0222D4
:10167C001A70324B1B78002B42D0304B00221A7060
:10168C00FFF71EFD3CE00220FFF7F2FDFFF794FD93
:10169C00FFF7D6FC244B1B78002B08D0FFF7F8FD86
:1016AC00274B1B68224A1360224B03221A70234BD0
:1016BC001B78002B26D0214B00221A70FFF70EFD51
:1016CC0020E00320FFF7D4FDFFF7A4FDFFF7D8FCC3
:1016DC00154B1B78002B07D0FFF7DAFD144B0022BB
:1016EC001A60144B00221A70144B1B78002B0BD071
:1016FC00124B00221A70FFF7FFFC05E000BF04E05C
:10170C0000BF02E000BF00E000BF0A4B1A78054B97
:10171C001A70FEF715FDFEF761FDFEF7A3FD00BF85
:10172C0080BD00BF75000020710000200400002067
:10173C006C000020760000200C00002072000020BD
:10174C000800002080B500AF00F0C2F900F00CF8E2
:10175C0000F092F800F044F8024801F017F9FFF796
:10176C004DFFFCE79400002080B590B000AF07F16E
:10177C00180328220021184601F0C4FC3B1D00224E
:10178C001A605A609A60DA601A610223BB61012305
:10179C00BB621023FB6200237B6307F1180318461E
:1017AC0000F0C8FC0346002B01D000F0D8F80F2342
:1017BC007B600023BB600023FB6000233B610023A4
:1017CC007B613B1D0021184600F034FF0346002BC3
:1017DC0001D000F0C4F800BF4037BD4680BD00000A
:1017EC0080B586B000AF07F1080300221A605A607A
:1017FC009A60DA603B4600221A605A601D4B4FF02B
:10180C0080421A601B4B41F63F725A60194B002202
:10181C009A60184B0922DA60164B00221A61154B9C
:10182C0000229A61134801F061F80346002B01D0A5
:10183C0000F095F84FF48053BB6007F1080319468C
:10184C000C4801F0F7F90346002B01D000F087F8A3
:10185C0000233B6000237B603B461946054801F0A2
:10186C00C3FB0346002B01D000F079F800BF1837FA
:10187C00BD4680BD9400002080B586B000AF07F156
:10188C00080300221A605A609A60DA60284B9B6940
:10189C00274A43F004039361254B9B6903F004032F
:1018AC007B607B68224B9B69214A43F00803936160
:1018BC001F4B9B6903F008033B603B68002247F613
:1018CC00FE711C4800F005FC00224FF6F8711A4816
:1018DC0000F0FFFB47F6FE73BB600123FB600023A7
:1018EC003B6102237B6107F108031946114800F0A4
:1018FC005FFA0723BB600023FB6000233B6107F109
:10190C00080319460C4800F053FA4FF6F873BB6005
:10191C000123FB6000233B6102237B6107F1080379
:10192C001946054800F044FA00BF1837BD4680BD83
:10193C000010024000080140000C014080B582B04C
:10194C0000AF78607B681B68B3F1804F03D1FEF762
:10195C00B9FDFEF7CBFC00BF0837BD4680BD80B497
:10196C0000AF72B600BFFEE780B485B000AF154B78
:10197C009B69144A43F001039361124B9B6903F07A
:10198C000103BB60BB680F4BDB690E4A43F080530D
:10199C00D3610C4BDB6903F080537B607B680A4B93
:1019AC005B68FB60FB6823F0E063FB60FB6843F063
:1019BC008063FB60044AFB68536000BF1437BD466C
:1019CC0080BC7047001002400000014080B584B01C
:1019DC0000AF78607B681B68B3F1804F13D10C4B60
:1019EC00DB690B4A43F00103D361094BDB6903F05C
:1019FC000103FB60FB68002200211C2000F0A1F910
:101A0C001C2000F0BAF900BF1037BD4680BD00BFE6
:101A1C000010024080B400AFFEE780B400AFFEE7D8
:101A2C0080B400AFFEE780B400AFFEE780B400AF37
:101A3C00FEE780B400AF00BFBD4680BC704780B4E9
:101A4C0000AF00BFBD4680BC704780B400AF00BF84
:101A5C00BD4680BC704780B500AF00F07FF800BF7A
:101A6C0080BD000080B500AF024800F0DBFF00BF76
:101A7C0080BD00BF9400002080B400AF00BFBD4605
:101A8C0080BC7047FFF7F8FF0B480C490C4A002349
:101A9C0002E0D458C4500433C4188C42F9D3094A18
:101AAC00094C002301E013600432A242FBD301F085
:101ABC0005FBFFF747FE70470000002034000020B4
:101ACC006431000834000020E0000020FEE7000034
:101ADC0080B500AF084B1B68074A43F01003136036
:101AEC00032000F023F90F2000F008F8FFF73CFF6B
:101AFC000023184680BD00BF0020024080B582B094
:101B0C0000AF7860124B1A68124B1B7819464FF4D1
:101B1C007A73B3FBF1F3B2FBF3F3184600F03BF925
:101B2C000346002B01D001230EE07B680F2B0AD853
:101B3C00002279684FF0FF3000F003F9064A7B6809
:101B4C001360002300E0012318460837BD4680BD12
:101B5C0028000020300000202C00002080B400AFB2
:101B6C00054B1B781A46054B1B681344034A13603C
:101B7C0000BFBD4680BC704730000020DC00002058
:101B8C0080B400AF024B1B681846BD4680BC704742
:101B9C00DC00002080B485B000AF78607B6803F077
:101BAC000703FB600C4BDB68BB60BA684FF6FF03A6
:101BBC001340BB60FB681A02BB68134343F0BF635E
:101BCC0043F40033BB60044ABB68D36000BF1437D6
:101BDC00BD4680BC704700BF00ED00E080B400AF94
:101BEC00044BDB681B0A03F007031846BD4680BC98
:101BFC00704700BF00ED00E080B483B000AF034637
:101C0C00FB7197F90730002B0BDBFB7903F01F02FC
:101C1C00064997F907305B09012000FA02F241F8F6
:101C2C00232000BF0C37BD4680BC704700E100E0AC
:101C3C0080B483B000AF03463960FB7197F907306D
:101C4C00002B0ADB3B68DAB20C4997F9073012011A
:101C5C00D2B20B4483F800230AE03B68DAB208499D
:101C6C00FB7903F00F03043B1201D2B20B441A763A
:101C7C0000BF0C37BD4680BC704700BF00E100E0E0
:101C8C0000ED00E080B489B000AFF860B9607A6014
:101C9C00FB6803F00703FB61FB69C3F10703042B2B
:101CAC0028BF0423BB61FB690433062B02D9FB69F3
:101CBC00033B00E000237B614FF0FF32BB6902FA6B
:101CCC0003F3DA43BB681A407B699A404FF0FF314B
:101CDC007B6901FA03F3D9437B680B401343184625
:101CEC002437BD4680BC704780B582B000AF7860A9
:101CFC007B68013BB3F1807F01D301230FE00A4ADB
:101D0C007B68013B53600F214FF0FF30FFF790FFD2
:101D1C00054B00229A60044B07221A6000231846D8
:101D2C000837BD4680BD00BF10E000E080B582B032
:101D3C0000AF78607868FFF72DFF00BF0837BD460D
:101D4C0080BD80B586B000AF0346B9607A60FB7386
:101D5C0000237B61FFF742FF78617A68B968786984
:101D6C00FFF790FF024697F90F3011461846FFF720
:101D7C005FFF00BF1837BD4680BD80B582B000AF95
:101D8C000346FB7197F907301846FFF735FF00BF84
:101D9C000837BD4680BD80B582B000AF78607868EA
:101DAC00FFF7A2FF034618460837BD4680BD00006A
:101DBC0080B48BB000AF7860396000237B62002365
:101DCC003B6248E101227B6A02FA03F3FB613B6848
:101DDC001B68FA691340BB61BA69FB699A4240F00F
:101DEC0037813B685B68A34A93425ED0A14A934219
:101DFC0075D8A14A934258D09F4A93426FD89F4AB4
:101E0C00934252D09D4A934269D89D4A93424CD0FA
:101E1C009B4A934263D89B4A934246D0994A934239
:101E2C005DD8122B2AD8122B59D801A252F823F0C4
:101E3C00B71E0008911E0008A31E0008E51E00082E
:101E4C00EB1E0008EB1E0008EB1E0008EB1E000842
:101E5C00EB1E0008EB1E0008EB1E0008EB1E000832
:101E6C00EB1E0008EB1E0008EB1E0008EB1E000822
:101E7C00EB1E0008991E0008AD1E0008824A934212
:101E8C0013D02CE03B68DB683B6229E03B68DB68E5
:101E9C0004333B6224E03B68DB6808333B621FE0A1
:101EAC003B68DB680C333B621AE03B689B68002B99
:101EBC0002D104233B6213E03B689B68012B05D1E4
:101ECC0008233B627B68FA691A6109E008233B62CC
:101EDC007B68FA695A6103E000233B6200E000BFB3
:101EEC00BB69FF2B01D87B6801E07B6804337B6105
:101EFC00BB69FF2B02D87B6A9B0002E07B6A083B24
:101F0C009B003B617B691A680F213B6901FA03F363
:101F1C00DB431A40396A3B6901FA03F31A437B69C4
:101F2C001A603B685B6803F08053002B00F09080D4
:101F3C00564B9B69554A43F001039361534B9B6984
:101F4C0003F00103BB60BB68514A7B6A9B080233F8
:101F5C0052F82330FB607B6A03F003039B000F22D3
:101F6C0002FA03F3DB43FA681340FB607B68494ACF
:101F7C0093420DD07B68484A934207D07B68474A0E
:101F8C00934201D1022304E0032302E0012300E089
:101F9C0000237A6A02F0030292009340FA6813431A
:101FAC00FB603B497B6A9B080233FA6841F82320AB
:101FBC003B685B6803F48013002B06D0384B9A689F
:101FCC003749BB6913438B6006E0354B9A68BB6994
:101FDC00DB43334913408B603B685B6803F40013AD
:101FEC00002B06D02E4BDA682D49BB691343CB600E
:101FFC0006E02B4BDA68BB69DB4329491340CB6005
:10200C003B685B6803F40033002B06D0244B5A6802
:10201C002349BB6913434B6006E0214B5A68BB69EB
:10202C00DB431F4913404B603B685B6803F4803310
:10203C00002B06D01A4B1A681949BB6913430B6065
:10204C0006E0174B1A68BB69DB43154913400B605C
:10205C007B6A01337B623B681A687B6A22FA03F362
:10206C00002B7FF4AFAE00BF00BF2C37BD4680BC49
:10207C00704700BF00003210000031100000221029
:10208C00000021100000121000001110001002407E
:10209C000000014000080140000C0140001001400C
:1020AC000004014080B485B000AF78600B467B80A3
:1020BC007B689A687B881340002B02D00123FB734A
:1020CC0001E00023FB73FB7B18461437BD4680BC34
:1020DC00704780B483B000AF78600B467B801346AA
:1020EC007B707B78002B03D07A887B681A6103E0C5
:1020FC007B881A047B681A6100BF0C37BD4680BC14
:10210C00704780B485B000AF78600B467B807B68ED
:10211C00DB68FB607A88FB6813401A04FB68D943C0
:10212C007B880B401A437B681A6100BF1437BD468D
:10213C0080BC704780B586B000AF78607B68002BA0
:10214C0001D101236CE27B681B6803F00103002BB7
:10215C0000F08780924B5B6803F00C03042B0CD0CF
:10216C008F4B5B6803F00C03082B12D18C4B5B6814
:10217C0003F48033B3F5803F0BD1894B1B6803F418
:10218C000033002B6CD07B685B68002B68D101237B
:10219C0046E27B685B68B3F5803F06D1804B1B68D9
:1021AC007F4A43F4803313602EE07B685B68002B1E
:1021BC000CD17B4B1B687A4A23F480331360784B29
:1021CC001B68774A23F4802313601DE07B685B68EF
:1021DC00B3F5A02F0CD1724B1B68714A43F48023CA
:1021EC0013606F4B1B686E4A43F4803313600BE033
:1021FC006B4B1B686A4A23F480331360684B1B6873
:10220C00674A23F4802313607B685B68002B13D030
:10221C00FFF7B6FC386108E0FFF7B2FC02463B69F9
:10222C00D31A642B01D90323FAE15D4B1B6803F429
:10223C000033002BF0D014E0FFF7A2FC386108E06B
:10224C00FFF79EFC02463B69D31A642B01D903238A
:10225C00E6E1534B1B6803F40033002BF0D100E094
:10226C0000BF7B681B6803F00203002B63D04C4B50
:10227C005B6803F00C03002B0BD0494B5B6803F03D
:10228C000C03082B1CD1464B5B6803F48033002BEA
:10229C0016D1434B1B6803F00203002B05D07B685F
:1022AC001B69012B01D00123BAE13D4B1B6823F0C4
:1022BC00F8027B685B69DB00394913430B603AE039
:1022CC007B681B69002B20D0364B01221A60FFF76C
:1022DC0057FC386108E0FFF753FC02463B69D31A00
:1022EC00022B01D903239BE12D4B1B6803F0020346
:1022FC00002BF0D02A4B1B6823F0F8027B685B693B
:10230C00DB00274913430B6015E0264B00221A60B3
:10231C00FFF736FC386108E0FFF732FC02463B69F8
:10232C00D31A022B01D903237AE11D4B1B6803F04E
:10233C000203002BF0D17B681B6803F00803002B11
:10234C003AD07B689B69002B19D0174B01221A607D
:10235C00FFF716FC386108E0FFF712FC02463B69F8
:10236C00D31A022B01D903235AE10D4B5B6A03F0FC
:10237C000203002BF0D0012000F09AFA1CE00A4B6B
:10238C0000221A60FFF7FCFB38610FE0FFF7F8FB47
:10239C0002463B69D31A022B08D9032340E100BF44
:1023AC000010024000004242800442429E4B5B6A95
:1023BC0003F00203002BE9D17B681B6803F00403D4
:1023CC00002B00F0A6800023FB75974BDB6903F014
:1023DC008053002B0DD1944BDB69934A43F080530F
:1023EC00D361914BDB6903F08053BB60BB68012365
:1023FC00FB758E4B1B6803F48073002B18D18B4B31
:10240C001B688A4A43F480731360FFF7B9FB386189
:10241C0008E0FFF7B5FB02463B69D31A642B01D9E0
:10242C000323FDE0814B1B6803F48073002BF0D079
:10243C007B68DB68012B06D17B4B1B6A7A4A43F025
:10244C00010313622DE07B68DB68002B0CD1764B0B
:10245C001B6A754A23F001031362734B1B6A724AA1
:10246C0023F0040313621CE07B68DB68052B0CD1A2
:10247C006D4B1B6A6C4A43F0040313626A4B1B6A74
:10248C00694A43F0010313620BE0674B1B6A664A0F
:10249C0023F001031362644B1B6A634A23F00403A9
:1024AC0013627B68DB68002B15D0FFF769FB386182
:1024BC000AE0FFF765FB02463B69D31A41F288320A
:1024CC00934201D90323ABE0574B1B6A03F0020381
:1024DC00002BEED014E0FFF753FB38610AE0FFF756
:1024EC004FFB02463B69D31A41F28832934201D921
:1024FC00032395E04C4B1B6A03F00203002BEED137
:10250C00FB7D012B05D1484BDB69474A23F08053F7
:10251C00D3617B68DB69002B00F08180424B5B68E8
:10252C0003F00C03082B61D07B68DB69022B46D1CE
:10253C003F4B00221A60FFF723FB386108E0FFF7DE
:10254C001FFB02463B69D31A022B01D9032367E018
:10255C00354B1B6803F00073002BF0D17B681B6AB2
:10256C00B3F5803F08D1304B5B6823F400327B68B5
:10257C009B682D4913434B602B4B5B6823F47412FF
:10258C007B68196A7B685B6A0B43274913434B6072
:10259C00274B01221A60FFF7F3FA386108E0FFF7C6
:1025AC00EFFA02463B69D31A022B01D9032337E019
:1025BC001D4B1B6803F00073002BF0D02FE01C4B5D
:1025CC0000221A60FFF7DCFA386108E0FFF7D8FA4E
:1025DC0002463B69D31A022B01D9032320E0124B8C
:1025EC001B6803F00073002BF0D118E07B68DB69EB
:1025FC00012B01D1012313E00B4B5B68FB60FB68E3
:10260C0003F480327B681B6A9A4206D1FB6803F4A0
:10261C0070127B685B6A9A4201D0012300E00023B0
:10262C0018461837BD4680BD0010024000700040AF
:10263C006000424280B584B000AF786039607B683E
:10264C00002B01D10123D0E06A4B1B6803F0070378
:10265C003A689A4210D9674B1B6823F00702654908
:10266C003B6813430B60634B1B6803F007033A682A
:10267C009A4201D00123B8E07B681B6803F0020387
:10268C00002B20D07B681B6803F00403002B05D0C3
:10269C00594B5B68584A43F4E06353607B681B6892
:1026AC0003F00803002B05D0534B5B68524A43F4EC
:1026BC0060535360504B5B6823F0F0027B689B685F
:1026CC004D4913434B607B681B6803F00103002BDF
:1026DC0040D07B685B68012B07D1474B1B6803F428
:1026EC000033002B15D101237FE07B685B68022B44
:1026FC0007D1414B1B6803F00073002B09D1012358
:10270C0073E03D4B1B6803F00203002B01D1012346
:10271C006BE0394B5B6823F003027B685B683649DE
:10272C0013434B60FFF72CFAF8600AE0FFF728FA26
:10273C000246FB68D31A41F28832934201D9032333
:10274C0053E02D4B5B6803F00C027B685B689B00CD
:10275C009A42EBD1274B1B6803F007033A689A4265
:10276C0010D2244B1B6823F0070222493B68134309
:10277C000B60204B1B6803F007033A689A4201D0A8
:10278C00012332E07B681B6803F00403002B08D0A4
:10279C00194B5B6823F4E0627B68DB6816491343D2
:1027AC004B607B681B6803F00803002B09D0124BAD
:1027BC005B6823F460527B681B69DB000E49134392
:1027CC004B6000F021F802460B4B5B681B0903F0D1
:1027DC000F030A49CB5C22FA03F3094A1360094B35
:1027EC001B681846FFF78AF9002318461037BD46B8
:1027FC0080BD00BF002002400010024038310008AC
:10280C00280000202C00002080B487B000AF0023EB
:10281C00FB600023BB6000237B6100237B600023F3
:10282C003B611E4B5B68FB60FB6803F00C03042BE5
:10283C0002D0082B03D027E0194B3B6127E0FB6843
:10284C009B0C03F00F03174AD35C7B60FB6803F40B
:10285C008033002B10D0114B5B685B0C03F0010331
:10286C00114AD35CBB607B680D4A02FB03F2BB6868
:10287C00B2FBF3F37B6104E07B680C4A02FB03F3CD
:10288C007B617B693B6102E0054B3B6100BF3B69AF
:10289C0018461C37BD4680BC704700BF0010024074
:1028AC0000127A00483100085831000800093D0038
:1028BC0080B485B000AF78600A4B1B680A4AA2FB53
:1028CC0003235B0A7A6802FB03F3FB6000BFFB681F
:1028DC005A1EFA60002BF9D100BF00BF1437BD4659
:1028EC0080BC704728000020D34D621080B582B0A8
:1028FC0000AF78607B68002B01D1012341E07B683D
:10290C0093F83D30DBB2002B06D17B68002283F8B4
:10291C003C207868FFF75AF87B68022283F83D2048
:10292C007B681A687B6804331946104600F06EFA0F
:10293C007B68012283F846207B68012283F83E20C5
:10294C007B68012283F83F207B68012283F84020BA
:10295C007B68012283F841207B68012283F84220A6
:10296C007B68012283F843207B68012283F8442092
:10297C007B68012283F845207B68012283F83D2087
:10298C00002318460837BD4680BD000080B485B0D2
:10299C0000AF78607B6893F83D30DBB2012B01D03F
:1029AC00012335E07B68022283F83D207B681B689D
:1029BC00DA687B681B6842F00102DA607B681B688E
:1029CC00164A934209D07B681B68B3F1804F04D040
:1029DC007B681B68124A934211D17B681B689B6809
:1029EC0003F00703FB60FB68062B10D07B681B68A9
:1029FC001A687B681B6842F001021A6007E07B686A
:102A0C001B681A687B681B6842F001021A6000237D
:102A1C0018461437BD4680BC704700BF002C0140DF
:102A2C000004004080B582B000AF78607B681B6802
:102A3C001B6903F00203022B22D17B681B68DB6845
:102A4C0003F00203022B1BD17B681B686FF00202A0
:102A5C001A617B6801221A777B681B689B6903F0FB
:102A6C000303002B03D0786800F0B4F905E0786814
:102A7C0000F0A7F9786800F0B6F97B6800221A77A5
:102A8C007B681B681B6903F00403042B22D17B6851
:102A9C001B68DB6803F00403042B1BD17B681B68E9
:102AAC006FF004021A617B6802221A777B681B683C
:102ABC009B6903F44073002B03D0786800F08AF90B
:102ACC0005E0786800F07DF9786800F08CF97B6897
:102ADC0000221A777B681B681B6903F00803082B1C
:102AEC0022D17B681B68DB6803F00803082B1BD121
:102AFC007B681B686FF008021A617B6804221A77E6
:102B0C007B681B68DB6903F00303002B03D0786838
:102B1C0000F060F905E0786800F053F9786800F08F
:102B2C0062F97B6800221A777B681B681B6903F0CB
:102B3C001003102B22D17B681B68DB6803F0100399
:102B4C00102B1BD17B681B686FF010021A617B681D
:102B5C0008221A777B681B68DB6903F44073002B2F
:102B6C0003D0786800F036F905E0786800F029F9B0
:102B7C00786800F038F97B6800221A777B681B684C
:102B8C001B6903F00103012B0ED17B681B68DB680A
:102B9C0003F00103012B07D17B681B686FF0010266
:102BAC001A617868FEF7CAFE7B681B681B6903F024
:102BBC008003802B0ED17B681B68DB6803F08003DD
:102BCC00802B07D17B681B686FF080021A617868D4
:102BDC0000F06BFA7B681B681B6903F04003402B09
:102BEC000ED17B681B68DB6803F04003402B07D1D8
:102BFC007B681B686FF040021A61786800F0FCF883
:102C0C007B681B681B6903F02003202B0ED17B68AB
:102C1C001B68DB6803F02003202B07D17B681B6843
:102C2C006FF020021A61786800F036FA00BF08379E
:102C3C00BD4680BD80B584B000AF7860396000239C
:102C4C00FB737B6893F83C30012B01D10223B4E079
:102C5C007B68012283F83C207B68022283F83D20AC
:102C6C007B681B689B68BB60BB6823F07703BB6009
:102C7C00BB6823F47F43BB607B681B68BA689A60AF
:102C8C003B681B68B3F5005F3ED0B3F5005F00F204
:102C9C008780B3F5805F00F08680B3F5805F7FD8C6
:102CAC00702B1AD0702B7BD8602B50D0602B77D820
:102CBC00502B3CD0502B73D8402B58D0402B6FD876
:102CCC00302B64D0302B6BD8202B60D0202B67D8C6
:102CDC00002B5CD0102B5AD062E07B6818683B68E4
:102CEC0099683B685A683B68DB6800F05EF97B6862
:102CFC001B689B68BB60BB6843F07703BB607B6859
:102D0C001B68BA689A604FE07B6818683B689968E2
:102D1C003B685A683B68DB6800F047F97B681B68C6
:102D2C009A687B681B6842F480429A603CE07B683E
:102D3C0018683B6859683B68DB681A4600F0BEF8B7
:102D4C007B681B685021184600F015F92CE07B6855
:102D5C0018683B6859683B68DB681A4600F0DCF879
:102D6C007B681B686021184600F005F91CE07B6845
:102D7C0018683B6859683B68DB681A4600F09EF897
:102D8C007B681B684021184600F0F5F80CE07B6866
:102D9C001A683B681B681946104600F0ECF803E013
:102DAC000123FB7300E000BF7B68012283F83D2008
:102DBC007B68002283F83C20FB7B18461037BD460D
:102DCC0080BD80B483B000AF786000BF0C37BD46C7
:102DDC0080BC704780B483B000AF786000BF0C3704
:102DEC00BD4680BC704780B483B000AF786000BF34
:102DFC000C37BD4680BC704780B483B000AF7860A0
:102E0C0000BF0C37BD4680BC7047000080B485B055
:102E1C0000AF786039607B681B68FB607B68254A73
:102E2C00934207D07B68B3F1804F03D07B68224A72
:102E3C00934208D1FB6823F07003FB603B685B682E
:102E4C00FA681343FB607B681A4A934207D07B688D
:102E5C00B3F1804F03D07B68174A934208D1FB68CB
:102E6C0023F44073FB603B68DB68FA681343FB6038
:102E7C00FB6823F080023B685B691343FB607B6853
:102E8C00FA681A603B689A687B68DA623B681A6871
:102E9C007B689A627B68074A934203D13B681A6944
:102EAC007B681A637B6801225A6100BF1437BD46E8
:102EBC0080BC7047002C01400004004080B487B0F7
:102ECC0000AFF860B9607A60FB681B6A7B61FB68D5
:102EDC001B6A23F00102FB681A62FB689B693B6169
:102EEC003B6923F0F0033B617B681B013A69134398
:102EFC003B617B6923F00A037B617A69BB681343EE
:102F0C007B61FB683A699A61FB687A691A6200BF57
:102F1C001C37BD4680BC704780B487B000AFF860EA
:102F2C00B9607A60FB681B6A7B61FB681B6A23F0E3
:102F3C001002FB681A62FB689B693B613B6923F4D6
:102F4C0070433B617B681B033A6913433B617B69AC
:102F5C0023F0A0037B61BB681B017A6913437B617F
:102F6C00FB683A699A61FB687A691A6200BF1C3780
:102F7C00BD4680BC704780B485B000AF78603960C6
:102F8C007B689B68FB60FB6823F07003FB603A680E
:102F9C00FB68134343F00703FB607B68FA689A6095
:102FAC0000BF1437BD4680BC704780B487B000AFFB
:102FBC00F860B9607A603B60FB689B687B617B69F9
:102FCC0023F47F437B613B681A027B681A43BB681E
:102FDC0013437A6913437B61FB687A699A6000BF7B
:102FEC001C37BD4680BC704780B485B000AF78609C
:102FFC0039607B6893F83C30012B01D1022341E00E
:10300C007B68012283F83C207B68022283F83D20F8
:10301C007B681B685B68FB607B681B689B68BB609C
:10302C00FB6823F07003FB603B681B68FA68134372
:10303C00FB607B681B68FA685A607B681B68144AE3
:10304C00934209D07B681B68B3F1804F04D07B6836
:10305C001B68104A93420CD1BB6823F08003BB6001
:10306C003B685B68BA681343BB607B681B68BA68D3
:10307C009A607B68012283F83D207B68002283F8EC
:10308C003C20002318461437BD4680BC704700BF57
:10309C00002C01400004004080B483B000AF786085
:1030AC0000BF0C37BD4680BC704780B483B000AF06
:1030BC00786000BF0C37BD4680BC704770B50026E9
:1030CC000C4D0D4C641BA410A64209D100F022F843
:1030DC0000260A4D0A4C641BA410A64205D170BDF3
:1030EC0055F8043B98470136EEE755F8043B9847F2
:1030FC000136F2E75C3100085C3100085C310008F5
:10310C006031000803460244934200D1704703F833
:10311C00011BF9E7F8B500BFF8BC08BC9E46704728
:0C312C00F8B500BFF8BC08BC9E46704718
:10313800000000000000000001020304060708095F
:1031480002030405060708090A0B0C0D0E0F1010E0
:043158000102000070
:04315C003101000835
:043160000D01000855
:103164000100000005000000030000000200000050
:103174000400000006000000020000000A00000035
:1031840001000000020000000024F4001000000010
:043194000100000036
:0400000508001A9144
:00000001FF
